{
  "_format": "hh-sol-artifact-1",
  "contractName": "CrowdfundingCampaign",
  "sourceName": "contracts/CrowdfundingCampaign.sol",
  "abi": [
    {
      "inputs": [
        {
          "internalType": "address",
          "name": "_owner",
          "type": "address"
        },
        {
          "internalType": "address",
          "name": "_beneficiary",
          "type": "address"
        },
        {
          "internalType": "uint256",
          "name": "_fundingGoalInUsd",
          "type": "uint256"
        },
        {
          "internalType": "uint256",
          "name": "_durationInDays",
          "type": "uint256"
        },
        {
          "internalType": "string",
          "name": "_title",
          "type": "string"
        }
      ],
      "stateMutability": "nonpayable",
      "type": "constructor"
    },
    {
      "inputs": [],
      "name": "ReentrancyGuardReentrantCall",
      "type": "error"
    },
    {
      "anonymous": false,
      "inputs": [
        {
          "indexed": false,
          "internalType": "uint256",
          "name": "totalRaised",
          "type": "uint256"
        },
        {
          "indexed": false,
          "internalType": "bool",
          "name": "fundingGoalReached",
          "type": "bool"
        }
      ],
      "name": "CampaignFinalized",
      "type": "event"
    },
    {
      "anonymous": false,
      "inputs": [
        {
          "indexed": true,
          "internalType": "address",
          "name": "contributor",
          "type": "address"
        },
        {
          "indexed": false,
          "internalType": "uint256",
          "name": "amount",
          "type": "uint256"
        },
        {
          "indexed": false,
          "internalType": "uint256",
          "name": "currentTotal",
          "type": "uint256"
        }
      ],
      "name": "FundingReceived",
      "type": "event"
    },
    {
      "anonymous": false,
      "inputs": [
        {
          "indexed": true,
          "internalType": "address",
          "name": "beneficiary",
          "type": "address"
        },
        {
          "indexed": false,
          "internalType": "uint256",
          "name": "amount",
          "type": "uint256"
        }
      ],
      "name": "FundsWithdrawn",
      "type": "event"
    },
    {
      "anonymous": false,
      "inputs": [
        {
          "indexed": true,
          "internalType": "address",
          "name": "contributor",
          "type": "address"
        },
        {
          "indexed": false,
          "internalType": "uint256",
          "name": "amount",
          "type": "uint256"
        }
      ],
      "name": "RefundClaimed",
      "type": "event"
    },
    {
      "inputs": [],
      "name": "FLR_USD_ID",
      "outputs": [
        {
          "internalType": "bytes21",
          "name": "",
          "type": "bytes21"
        }
      ],
      "stateMutability": "view",
      "type": "function"
    },
    {
      "inputs": [],
      "name": "beneficiary",
      "outputs": [
        {
          "internalType": "address",
          "name": "",
          "type": "address"
        }
      ],
      "stateMutability": "view",
      "type": "function"
    },
    {
      "inputs": [],
      "name": "campaignClosed",
      "outputs": [
        {
          "internalType": "bool",
          "name": "",
          "type": "bool"
        }
      ],
      "stateMutability": "view",
      "type": "function"
    },
    {
      "inputs": [],
      "name": "checkGoalReached",
      "outputs": [],
      "stateMutability": "nonpayable",
      "type": "function"
    },
    {
      "inputs": [],
      "name": "claimRefund",
      "outputs": [],
      "stateMutability": "nonpayable",
      "type": "function"
    },
    {
      "inputs": [],
      "name": "contribute",
      "outputs": [],
      "stateMutability": "payable",
      "type": "function"
    },
    {
      "inputs": [
        {
          "internalType": "address",
          "name": "",
          "type": "address"
        }
      ],
      "name": "contributions",
      "outputs": [
        {
          "internalType": "uint256",
          "name": "",
          "type": "uint256"
        }
      ],
      "stateMutability": "view",
      "type": "function"
    },
    {
      "inputs": [],
      "name": "deadline",
      "outputs": [
        {
          "internalType": "uint256",
          "name": "",
          "type": "uint256"
        }
      ],
      "stateMutability": "view",
      "type": "function"
    },
    {
      "inputs": [],
      "name": "finalizeCampaign",
      "outputs": [],
      "stateMutability": "nonpayable",
      "type": "function"
    },
    {
      "inputs": [],
      "name": "fundingGoalInUsd",
      "outputs": [
        {
          "internalType": "uint256",
          "name": "",
          "type": "uint256"
        }
      ],
      "stateMutability": "view",
      "type": "function"
    },
    {
      "inputs": [],
      "name": "fundingGoalReached",
      "outputs": [
        {
          "internalType": "bool",
          "name": "",
          "type": "bool"
        }
      ],
      "stateMutability": "view",
      "type": "function"
    },
    {
      "inputs": [],
      "name": "getCampaignInfo",
      "outputs": [
        {
          "internalType": "address",
          "name": "_owner",
          "type": "address"
        },
        {
          "internalType": "address",
          "name": "_beneficiary",
          "type": "address"
        },
        {
          "internalType": "uint256",
          "name": "_fundingGoalInUsd",
          "type": "uint256"
        },
        {
          "internalType": "uint256",
          "name": "_deadline",
          "type": "uint256"
        },
        {
          "internalType": "uint256",
          "name": "_totalFundsRaised",
          "type": "uint256"
        },
        {
          "internalType": "bool",
          "name": "_fundingGoalReached",
          "type": "bool"
        },
        {
          "internalType": "bool",
          "name": "_campaignClosed",
          "type": "bool"
        },
        {
          "internalType": "string",
          "name": "_title",
          "type": "string"
        }
      ],
      "stateMutability": "view",
      "type": "function"
    },
    {
      "inputs": [],
      "name": "getFlrUsdPrice",
      "outputs": [
        {
          "internalType": "uint256",
          "name": "price",
          "type": "uint256"
        },
        {
          "internalType": "int8",
          "name": "decimals",
          "type": "int8"
        },
        {
          "internalType": "uint64",
          "name": "timestamp",
          "type": "uint64"
        }
      ],
      "stateMutability": "nonpayable",
      "type": "function"
    },
    {
      "inputs": [],
      "name": "owner",
      "outputs": [
        {
          "internalType": "address",
          "name": "",
          "type": "address"
        }
      ],
      "stateMutability": "view",
      "type": "function"
    },
    {
      "inputs": [],
      "name": "title",
      "outputs": [
        {
          "internalType": "string",
          "name": "",
          "type": "string"
        }
      ],
      "stateMutability": "view",
      "type": "function"
    },
    {
      "inputs": [],
      "name": "totalFundsRaised",
      "outputs": [
        {
          "internalType": "uint256",
          "name": "",
          "type": "uint256"
        }
      ],
      "stateMutability": "view",
      "type": "function"
    },
    {
      "inputs": [],
      "name": "withdrawFunds",
      "outputs": [],
      "stateMutability": "nonpayable",
      "type": "function"
    },
    {
      "stateMutability": "payable",
      "type": "receive"
    }
  ],
  "bytecode": "0x608060405234801561001057600080fd5b5060405161162338038061162383398101604081905261002f916101bc565b60016000556001600160a01b03851661007f5760405162461bcd60e51b815260206004820152600d60248201526c24b73b30b634b21037bbb732b960991b60448201526064015b60405180910390fd5b6001600160a01b0384166100d55760405162461bcd60e51b815260206004820152601360248201527f496e76616c69642062656e6566696369617279000000000000000000000000006044820152606401610076565b600083116101145760405162461bcd60e51b815260206004820152600c60248201526b125b9d985b1a590819dbd85b60a21b6044820152606401610076565b600180546001600160a01b038088166001600160a01b031992831617909255600280549287169290911691909117905561015683670de0b6b3a76400006102d1565b60035561016682620151806102d1565b61017090426102ee565b600455600761017f828261038c565b50505050505061044b565b80516001600160a01b03811681146101a157600080fd5b919050565b634e487b7160e01b600052604160045260246000fd5b600080600080600060a086880312156101d457600080fd5b6101dd8661018a565b945060206101ec81880161018a565b6040880151606089015160808a015192975090955093506001600160401b038082111561021857600080fd5b818901915089601f83011261022c57600080fd5b81518181111561023e5761023e6101a6565b604051601f8201601f19908116603f01168101908382118183101715610266576102666101a6565b816040528281528c8684870101111561027e57600080fd5b600093505b828410156102a05784840186015181850187015292850192610283565b60008684830101528096505050505050509295509295909350565b634e487b7160e01b600052601160045260246000fd5b80820281158282048414176102e8576102e86102bb565b92915050565b808201808211156102e8576102e86102bb565b600181811c9082168061031557607f821691505b60208210810361033557634e487b7160e01b600052602260045260246000fd5b50919050565b601f821115610387576000816000526020600020601f850160051c810160208610156103645750805b601f850160051c820191505b8181101561038357828155600101610370565b5050505b505050565b81516001600160401b038111156103a5576103a56101a6565b6103b9816103b38454610301565b8461033b565b602080601f8311600181146103ee57600084156103d65750858301515b600019600386901b1c1916600185901b178555610383565b600085815260208120601f198616915b8281101561041d578886015182559484019460019091019084016103fe565b508582101561043b5787850151600019600388901b60f8161c191681555b5050505050600190811b01905550565b6111c98061045a6000396000f3fe6080604052600436106101025760003560e01c806342e94c9011610095578063a1211bc011610064578063a1211bc01461033a578063b5545a3c1461034f578063d424f62814610364578063d6290cd71461037e578063d7bb99ba146103a757600080fd5b806342e94c901461029c5780634a79d50c146102c95780638da5cb5b146102eb5780639fdd82e81461030b57600080fd5b806329dcb0cf116100d157806329dcb0cf146102145780632b3b30901461023857806338af3eed1461024e578063427c0c7f1461028657600080fd5b806301cb3b201461016d57806308200a7c14610182578063096bbd28146101c457806324600fc3146101ff57600080fd5b36610168576001546001600160a01b031633146101665760405162461bcd60e51b815260206004820152601c60248201527f446972656374207472616e7366657273206e6f7420616c6c6f7765640000000060448201526064015b60405180910390fd5b005b600080fd5b34801561017957600080fd5b506101666103af565b34801561018e57600080fd5b50610197610415565b6040805193845260009290920b602084015267ffffffffffffffff16908201526060015b60405180910390f35b3480156101d057600080fd5b506101e2665193148bd554d160c21b81565b6040516affffffffffffffffffffff1990911681526020016101bb565b34801561020b57600080fd5b506101666104a6565b34801561022057600080fd5b5061022a60045481565b6040519081526020016101bb565b34801561024457600080fd5b5061022a60035481565b34801561025a57600080fd5b5060025461026e906001600160a01b031681565b6040516001600160a01b0390911681526020016101bb565b34801561029257600080fd5b5061022a60055481565b3480156102a857600080fd5b5061022a6102b7366004610eb1565b60086020526000908152604090205481565b3480156102d557600080fd5b506102de6106fa565b6040516101bb9190610f1b565b3480156102f757600080fd5b5060015461026e906001600160a01b031681565b34801561031757600080fd5b5060065461032a90610100900460ff1681565b60405190151581526020016101bb565b34801561034657600080fd5b50610166610788565b34801561035b57600080fd5b5061016661097e565b34801561037057600080fd5b5060065461032a9060ff1681565b34801561038a57600080fd5b50610393610b58565b6040516101bb989796959493929190610f2e565b610166610c43565b600654610100900460ff16156103c157565b6000806103cc610415565b50909250905060006103df82600a61108b565b836005546103ed919061109a565b6103f791906110b1565b90506003548110610410576006805460ff191660011790555b505050565b600080600080610423610da6565b6040516349f4fc0360e11b8152665193148bd554d160c21b60048201529091506001600160a01b038216906393e9f806906024016060604051808303816000875af1158015610476573d6000803e3d6000fd5b505050506040513d601f19601f8201168201806040525081019061049a91906110d3565b93509350935050909192565b6104ae610e6f565b60065460ff166104f35760405162461bcd60e51b815260206004820152601060248201526f11dbd85b081b9bdd081c995858da195960821b604482015260640161015d565b600654610100900460ff161561054b5760405162461bcd60e51b815260206004820152601a60248201527f43616d706169676e20616c72656164792066696e616c697a6564000000000000604482015260640161015d565b6002546001600160a01b031633146105a55760405162461bcd60e51b815260206004820152601d60248201527f4f6e6c792062656e65666963696172792063616e207769746864726177000000604482015260640161015d565b6006805461ff0019166101001790556105bc6103af565b6005805460009091556006546040805183815260ff909216151560208301527f153ed4c9c4475018e4899faf78c3171cc7869a9c53a2d247de2ff74377eba788910160405180910390a16002546040516000916001600160a01b03169083908381818185875af1925050503d8060008114610653576040519150601f19603f3d011682016040523d82523d6000602084013e610658565b606091505b50509050806106a95760405162461bcd60e51b815260206004820152601860248201527f5769746864726177207472616e73666572206661696c65640000000000000000604482015260640161015d565b6002546040518381526001600160a01b03909116907feaff4b37086828766ad3268786972c0cd24259d4c87a80f9d3963a3c3d999b0d906020015b60405180910390a250506106f86001600055565b565b6007805461070790611129565b80601f016020809104026020016040519081016040528092919081815260200182805461073390611129565b80156107805780601f1061075557610100808354040283529160200191610780565b820191906000526020600020905b81548152906001019060200180831161076357829003601f168201915b505050505081565b6001546001600160a01b031633146107cf5760405162461bcd60e51b815260206004820152600a60248201526927b7363c9037bbb732b960b11b604482015260640161015d565b6107d7610e6f565b600654610100900460ff16156108205760405162461bcd60e51b815260206004820152600e60248201526d105b1c9958591e4818db1bdcd95960921b604482015260640161015d565b600454421180610832575060065460ff165b61086d5760405162461bcd60e51b815260206004820152600c60248201526b5374696c6c2061637469766560a01b604482015260640161015d565b6006805461ff0019166101001790556108846103af565b6005546006546040805192835260ff909116151560208301527f153ed4c9c4475018e4899faf78c3171cc7869a9c53a2d247de2ff74377eba788910160405180910390a160065460ff161561097457600580546000918290556002546040519192916001600160a01b039091169083908381818185875af1925050503d806000811461092c576040519150601f19603f3d011682016040523d82523d6000602084013e610931565b606091505b50509050806106a95760405162461bcd60e51b815260206004820152600f60248201526e151c985b9cd9995c8819985a5b1959608a1b604482015260640161015d565b6106f86001600055565b610986610e6f565b600654610100900460ff166109d65760405162461bcd60e51b815260206004820152601660248201527510d85b5c185a59db881b9bdd08199a5b985b1a5e995960521b604482015260640161015d565b60065460ff1615610a295760405162461bcd60e51b815260206004820152601c60248201527f476f616c2077617320726561636865642c206e6f20726566756e647300000000604482015260640161015d565b3360009081526008602052604090205480610a865760405162461bcd60e51b815260206004820152601960248201527f4e6f20636f6e747269627574696f6e20746f20726566756e6400000000000000604482015260640161015d565b336000818152600860205260408082208290555190919083908381818185875af1925050503d8060008114610ad7576040519150601f19603f3d011682016040523d82523d6000602084013e610adc565b606091505b5050905080610b265760405162461bcd60e51b81526020600482015260166024820152751499599d5b99081d1c985b9cd9995c8819985a5b195960521b604482015260640161015d565b60405182815233907f358fe4192934d3bf28ae181feda1f4bd08ca67f5e2fad55582cce5eb67304ae9906020016106e4565b600154600254600354600454600554600654600780546000978897889788978897889788976060976001600160a01b03978816979096169560ff8084169361010090041691908190610ba990611129565b80601f0160208091040260200160405190810160405280929190818152602001828054610bd590611129565b8015610c225780601f10610bf757610100808354040283529160200191610c22565b820191906000526020600020905b815481529060010190602001808311610c0557829003601f168201915b50505050509050975097509750975097509750975097509091929394959697565b610c4b610e6f565b600654610100900460ff1615610c955760405162461bcd60e51b815260206004820152600f60248201526e10d85b5c185a59db8818db1bdcd959608a1b604482015260640161015d565b600454421115610cd95760405162461bcd60e51b815260206004820152600f60248201526e111958591b1a5b99481c185cdcd959608a1b604482015260640161015d565b60003411610d1d5760405162461bcd60e51b81526020600482015260116024820152702d32b9379031b7b73a3934b13aba34b7b760791b604482015260640161015d565b3360009081526008602052604081208054349290610d3c908490611163565b925050819055503460056000828254610d559190611163565b909155505060055460405133917f5cdc4ab8d637538ead6cc1904d4160343656c8c82bd266635cfd31ac008fffe091610d9691348252602082015260400190565b60405180910390a26109746103af565b600073ad67fe66660fb8dfe9d6b1b4240d8650e30f60196001600160a01b031663159354a2604051602001610df590602080825260069082015265233a39b7ab1960d11b604082015260600190565b604051602081830303815290604052805190602001206040518263ffffffff1660e01b8152600401610e2991815260200190565b602060405180830381865afa158015610e46573d6000803e3d6000fd5b505050506040513d601f19601f82011682018060405250810190610e6a9190611176565b905090565b600260005403610e9257604051633ee5aeb560e01b815260040160405180910390fd5b6002600055565b6001600160a01b0381168114610eae57600080fd5b50565b600060208284031215610ec357600080fd5b8135610ece81610e99565b9392505050565b6000815180845260005b81811015610efb57602081850181015186830182015201610edf565b506000602082860101526020601f19601f83011685010191505092915050565b602081526000610ece6020830184610ed5565b6001600160a01b0389811682528816602082015260408101879052606081018690526080810185905283151560a082015282151560c082015261010060e08201819052600090610f8083820185610ed5565b9b9a5050505050505050505050565b634e487b7160e01b600052601160045260246000fd5b600181815b80851115610fe0578160001904821115610fc657610fc6610f8f565b80851615610fd357918102915b93841c9390800290610faa565b509250929050565b600082610ff757506001611085565b8161100457506000611085565b816001811461101a576002811461102457611040565b6001915050611085565b60ff84111561103557611035610f8f565b50506001821b611085565b5060208310610133831016604e8410600b8410161715611063575081810a611085565b61106d8383610fa5565b806000190482111561108157611081610f8f565b0290505b92915050565b6000610ece60ff841683610fe8565b808202811582820484141761108557611085610f8f565b6000826110ce57634e487b7160e01b600052601260045260246000fd5b500490565b6000806000606084860312156110e857600080fd5b8351925060208401518060000b811461110057600080fd5b604085015190925067ffffffffffffffff8116811461111e57600080fd5b809150509250925092565b600181811c9082168061113d57607f821691505b60208210810361115d57634e487b7160e01b600052602260045260246000fd5b50919050565b8082018082111561108557611085610f8f565b60006020828403121561118857600080fd5b8151610ece81610e9956fea26469706673582212204121a3605196ba33231b6a7fe5c20618313862230a52b76191a4be723f2aef2e64736f6c63430008190033",
  "linkReferences": {},
  "deployedLinkReferences": {}
}